{
  "address": "0xFeA304922a1bE190f1EBFBf25C7153F716eE26d1",
  "abi": [
    {
      "inputs": [
        {
          "internalType": "address",
          "name": "sender",
          "type": "address"
        },
        {
          "internalType": "uint256",
          "name": "tokenId",
          "type": "uint256"
        },
        {
          "internalType": "address",
          "name": "owner",
          "type": "address"
        }
      ],
      "name": "ERC721IncorrectOwner",
      "type": "error"
    },
    {
      "inputs": [
        {
          "internalType": "address",
          "name": "operator",
          "type": "address"
        },
        {
          "internalType": "uint256",
          "name": "tokenId",
          "type": "uint256"
        }
      ],
      "name": "ERC721InsufficientApproval",
      "type": "error"
    },
    {
      "inputs": [
        {
          "internalType": "address",
          "name": "approver",
          "type": "address"
        }
      ],
      "name": "ERC721InvalidApprover",
      "type": "error"
    },
    {
      "inputs": [
        {
          "internalType": "address",
          "name": "operator",
          "type": "address"
        }
      ],
      "name": "ERC721InvalidOperator",
      "type": "error"
    },
    {
      "inputs": [
        {
          "internalType": "address",
          "name": "owner",
          "type": "address"
        }
      ],
      "name": "ERC721InvalidOwner",
      "type": "error"
    },
    {
      "inputs": [
        {
          "internalType": "address",
          "name": "receiver",
          "type": "address"
        }
      ],
      "name": "ERC721InvalidReceiver",
      "type": "error"
    },
    {
      "inputs": [
        {
          "internalType": "address",
          "name": "sender",
          "type": "address"
        }
      ],
      "name": "ERC721InvalidSender",
      "type": "error"
    },
    {
      "inputs": [
        {
          "internalType": "uint256",
          "name": "tokenId",
          "type": "uint256"
        }
      ],
      "name": "ERC721NonexistentToken",
      "type": "error"
    },
    {
      "inputs": [],
      "name": "InvalidInitialization",
      "type": "error"
    },
    {
      "inputs": [],
      "name": "NotInitializing",
      "type": "error"
    },
    {
      "inputs": [
        {
          "internalType": "address",
          "name": "owner",
          "type": "address"
        }
      ],
      "name": "OwnableInvalidOwner",
      "type": "error"
    },
    {
      "inputs": [
        {
          "internalType": "address",
          "name": "account",
          "type": "address"
        }
      ],
      "name": "OwnableUnauthorizedAccount",
      "type": "error"
    },
    {
      "anonymous": false,
      "inputs": [
        {
          "indexed": true,
          "internalType": "address",
          "name": "owner",
          "type": "address"
        },
        {
          "indexed": true,
          "internalType": "address",
          "name": "approved",
          "type": "address"
        },
        {
          "indexed": true,
          "internalType": "uint256",
          "name": "tokenId",
          "type": "uint256"
        }
      ],
      "name": "Approval",
      "type": "event"
    },
    {
      "anonymous": false,
      "inputs": [
        {
          "indexed": true,
          "internalType": "address",
          "name": "owner",
          "type": "address"
        },
        {
          "indexed": true,
          "internalType": "address",
          "name": "operator",
          "type": "address"
        },
        {
          "indexed": false,
          "internalType": "bool",
          "name": "approved",
          "type": "bool"
        }
      ],
      "name": "ApprovalForAll",
      "type": "event"
    },
    {
      "anonymous": false,
      "inputs": [
        {
          "indexed": false,
          "internalType": "uint64",
          "name": "version",
          "type": "uint64"
        }
      ],
      "name": "Initialized",
      "type": "event"
    },
    {
      "anonymous": false,
      "inputs": [
        {
          "indexed": true,
          "internalType": "address",
          "name": "user",
          "type": "address"
        },
        {
          "indexed": false,
          "internalType": "uint256",
          "name": "tokenId",
          "type": "uint256"
        }
      ],
      "name": "Minted",
      "type": "event"
    },
    {
      "anonymous": false,
      "inputs": [
        {
          "indexed": true,
          "internalType": "address",
          "name": "previousOwner",
          "type": "address"
        },
        {
          "indexed": true,
          "internalType": "address",
          "name": "newOwner",
          "type": "address"
        }
      ],
      "name": "OwnershipTransferred",
      "type": "event"
    },
    {
      "anonymous": false,
      "inputs": [
        {
          "indexed": true,
          "internalType": "address",
          "name": "from",
          "type": "address"
        },
        {
          "indexed": true,
          "internalType": "address",
          "name": "to",
          "type": "address"
        },
        {
          "indexed": true,
          "internalType": "uint256",
          "name": "tokenId",
          "type": "uint256"
        }
      ],
      "name": "Transfer",
      "type": "event"
    },
    {
      "anonymous": false,
      "inputs": [
        {
          "indexed": true,
          "internalType": "uint256",
          "name": "tokenId",
          "type": "uint256"
        },
        {
          "indexed": true,
          "internalType": "address",
          "name": "user",
          "type": "address"
        },
        {
          "indexed": false,
          "internalType": "uint64",
          "name": "expires",
          "type": "uint64"
        }
      ],
      "name": "UpdateUser",
      "type": "event"
    },
    {
      "inputs": [
        {
          "internalType": "address",
          "name": "to",
          "type": "address"
        },
        {
          "internalType": "uint256",
          "name": "tokenId",
          "type": "uint256"
        }
      ],
      "name": "approve",
      "outputs": [],
      "stateMutability": "nonpayable",
      "type": "function"
    },
    {
      "inputs": [
        {
          "internalType": "address",
          "name": "owner",
          "type": "address"
        }
      ],
      "name": "balanceOf",
      "outputs": [
        {
          "internalType": "uint256",
          "name": "",
          "type": "uint256"
        }
      ],
      "stateMutability": "view",
      "type": "function"
    },
    {
      "inputs": [
        {
          "internalType": "uint256",
          "name": "tokenId",
          "type": "uint256"
        }
      ],
      "name": "getApproved",
      "outputs": [
        {
          "internalType": "address",
          "name": "",
          "type": "address"
        }
      ],
      "stateMutability": "view",
      "type": "function"
    },
    {
      "inputs": [
        {
          "internalType": "string",
          "name": "_name",
          "type": "string"
        },
        {
          "internalType": "string",
          "name": "_symbol",
          "type": "string"
        }
      ],
      "name": "initialize",
      "outputs": [],
      "stateMutability": "nonpayable",
      "type": "function"
    },
    {
      "inputs": [
        {
          "internalType": "address",
          "name": "owner",
          "type": "address"
        },
        {
          "internalType": "address",
          "name": "operator",
          "type": "address"
        }
      ],
      "name": "isApprovedForAll",
      "outputs": [
        {
          "internalType": "bool",
          "name": "",
          "type": "bool"
        }
      ],
      "stateMutability": "view",
      "type": "function"
    },
    {
      "inputs": [
        {
          "internalType": "uint256",
          "name": "_tokenId",
          "type": "uint256"
        },
        {
          "internalType": "address",
          "name": "_to",
          "type": "address"
        }
      ],
      "name": "mint",
      "outputs": [],
      "stateMutability": "nonpayable",
      "type": "function"
    },
    {
      "inputs": [],
      "name": "name",
      "outputs": [
        {
          "internalType": "string",
          "name": "",
          "type": "string"
        }
      ],
      "stateMutability": "view",
      "type": "function"
    },
    {
      "inputs": [],
      "name": "owner",
      "outputs": [
        {
          "internalType": "address",
          "name": "",
          "type": "address"
        }
      ],
      "stateMutability": "view",
      "type": "function"
    },
    {
      "inputs": [
        {
          "internalType": "uint256",
          "name": "tokenId",
          "type": "uint256"
        }
      ],
      "name": "ownerOf",
      "outputs": [
        {
          "internalType": "address",
          "name": "",
          "type": "address"
        }
      ],
      "stateMutability": "view",
      "type": "function"
    },
    {
      "inputs": [],
      "name": "renounceOwnership",
      "outputs": [],
      "stateMutability": "nonpayable",
      "type": "function"
    },
    {
      "inputs": [
        {
          "internalType": "address",
          "name": "from",
          "type": "address"
        },
        {
          "internalType": "address",
          "name": "to",
          "type": "address"
        },
        {
          "internalType": "uint256",
          "name": "tokenId",
          "type": "uint256"
        }
      ],
      "name": "safeTransferFrom",
      "outputs": [],
      "stateMutability": "nonpayable",
      "type": "function"
    },
    {
      "inputs": [
        {
          "internalType": "address",
          "name": "from",
          "type": "address"
        },
        {
          "internalType": "address",
          "name": "to",
          "type": "address"
        },
        {
          "internalType": "uint256",
          "name": "tokenId",
          "type": "uint256"
        },
        {
          "internalType": "bytes",
          "name": "data",
          "type": "bytes"
        }
      ],
      "name": "safeTransferFrom",
      "outputs": [],
      "stateMutability": "nonpayable",
      "type": "function"
    },
    {
      "inputs": [
        {
          "internalType": "address",
          "name": "operator",
          "type": "address"
        },
        {
          "internalType": "bool",
          "name": "approved",
          "type": "bool"
        }
      ],
      "name": "setApprovalForAll",
      "outputs": [],
      "stateMutability": "nonpayable",
      "type": "function"
    },
    {
      "inputs": [
        {
          "internalType": "uint256",
          "name": "tokenId",
          "type": "uint256"
        },
        {
          "internalType": "address",
          "name": "_user",
          "type": "address"
        },
        {
          "internalType": "uint64",
          "name": "expires",
          "type": "uint64"
        }
      ],
      "name": "setUser",
      "outputs": [],
      "stateMutability": "nonpayable",
      "type": "function"
    },
    {
      "inputs": [
        {
          "internalType": "bytes4",
          "name": "_interfaceId",
          "type": "bytes4"
        }
      ],
      "name": "supportInterface",
      "outputs": [
        {
          "internalType": "bool",
          "name": "",
          "type": "bool"
        }
      ],
      "stateMutability": "view",
      "type": "function"
    },
    {
      "inputs": [
        {
          "internalType": "bytes4",
          "name": "_interfaceId",
          "type": "bytes4"
        }
      ],
      "name": "supportsInterface",
      "outputs": [
        {
          "internalType": "bool",
          "name": "",
          "type": "bool"
        }
      ],
      "stateMutability": "view",
      "type": "function"
    },
    {
      "inputs": [],
      "name": "symbol",
      "outputs": [
        {
          "internalType": "string",
          "name": "",
          "type": "string"
        }
      ],
      "stateMutability": "view",
      "type": "function"
    },
    {
      "inputs": [
        {
          "internalType": "uint256",
          "name": "tokenId",
          "type": "uint256"
        }
      ],
      "name": "tokenURI",
      "outputs": [
        {
          "internalType": "string",
          "name": "",
          "type": "string"
        }
      ],
      "stateMutability": "view",
      "type": "function"
    },
    {
      "inputs": [
        {
          "internalType": "address",
          "name": "from",
          "type": "address"
        },
        {
          "internalType": "address",
          "name": "to",
          "type": "address"
        },
        {
          "internalType": "uint256",
          "name": "tokenId",
          "type": "uint256"
        }
      ],
      "name": "transferFrom",
      "outputs": [],
      "stateMutability": "nonpayable",
      "type": "function"
    },
    {
      "inputs": [
        {
          "internalType": "address",
          "name": "newOwner",
          "type": "address"
        }
      ],
      "name": "transferOwnership",
      "outputs": [],
      "stateMutability": "nonpayable",
      "type": "function"
    },
    {
      "inputs": [
        {
          "internalType": "uint256",
          "name": "_tokenId",
          "type": "uint256"
        }
      ],
      "name": "userExpires",
      "outputs": [
        {
          "internalType": "uint256",
          "name": "",
          "type": "uint256"
        }
      ],
      "stateMutability": "view",
      "type": "function"
    },
    {
      "inputs": [
        {
          "internalType": "uint256",
          "name": "_tokenId",
          "type": "uint256"
        }
      ],
      "name": "userOf",
      "outputs": [
        {
          "internalType": "address",
          "name": "",
          "type": "address"
        }
      ],
      "stateMutability": "view",
      "type": "function"
    }
  ],
  "transactionHash": "0xdebb6322291157d37ca17521c85394617c13a512384be1b7c804eb6751041724",
  "args": [],
  "numDeployments": 1,
  "solcInputHash": "52d0dc5e4e99c898876e0d537ab63c97",
  "bytecode": "0x6080604052348015600f57600080fd5b50612e058061001f6000396000f3fe608060405234801561001057600080fd5b50600436106101425760003560e01c80638da5cb5b116100b8578063b88d4fde1161007c578063b88d4fde14610373578063c2f1f14a1461038f578063c87b56dd146103bf578063e030565e146103ef578063e985e9c51461040b578063f2fde38b1461043b57610142565b80638da5cb5b146102cf5780638fc88c48146102ed57806394bf804d1461031d57806395d89b4114610339578063a22cb4651461035757610142565b806342842e0e1161010a57806342842e0e146101fd5780634cd88b76146102195780636352211e1461023557806370a0823114610265578063715018a61461029557806375e79be61461029f57610142565b806301ffc9a71461014757806306fdde0314610177578063081812fc14610195578063095ea7b3146101c557806323b872dd146101e1575b600080fd5b610161600480360381019061015c9190612070565b610457565b60405161016e91906120b8565b60405180910390f35b61017f610469565b60405161018c9190612163565b60405180910390f35b6101af60048036038101906101aa91906121bb565b61050a565b6040516101bc9190612229565b60405180910390f35b6101df60048036038101906101da9190612270565b610526565b005b6101fb60048036038101906101f691906122b0565b61053c565b005b610217600480360381019061021291906122b0565b61063e565b005b610233600480360381019061022e9190612438565b61065e565b005b61024f600480360381019061024a91906121bb565b6107f8565b60405161025c9190612229565b60405180910390f35b61027f600480360381019061027a91906124b0565b61080a565b60405161028c91906124ec565b60405180910390f35b61029d6108d3565b005b6102b960048036038101906102b49190612070565b6108e7565b6040516102c691906120b8565b60405180910390f35b6102d7610929565b6040516102e49190612229565b60405180910390f35b610307600480360381019061030291906121bb565b610961565b60405161031491906124ec565b60405180910390f35b61033760048036038101906103329190612507565b610980565b005b6103416109e4565b60405161034e9190612163565b60405180910390f35b610371600480360381019061036c9190612573565b610a85565b005b61038d60048036038101906103889190612654565b610a9b565b005b6103a960048036038101906103a491906121bb565b610ac0565b6040516103b69190612229565b60405180910390f35b6103d960048036038101906103d491906121bb565b610b25565b6040516103e69190612163565b60405180910390f35b61040960048036038101906104049190612717565b610b8e565b005b6104256004803603810190610420919061276a565b610ca3565b60405161043291906120b8565b60405180910390f35b610455600480360381019061045091906124b0565b610d45565b005b600061046282610dcb565b9050919050565b60606000610475610ead565b9050806000018054610486906127d9565b80601f01602080910402602001604051908101604052809291908181526020018280546104b2906127d9565b80156104ff5780601f106104d4576101008083540402835291602001916104ff565b820191906000526020600020905b8154815290600101906020018083116104e257829003601f168201915b505050505091505090565b600061051582610ed5565b5061051f82610f5d565b9050919050565b6105388282610533610fa8565b610fb0565b5050565b600073ffffffffffffffffffffffffffffffffffffffff168273ffffffffffffffffffffffffffffffffffffffff16036105ae5760006040517f64a0ae920000000000000000000000000000000000000000000000000000000081526004016105a59190612229565b60405180910390fd5b60006105c283836105bd610fa8565b610fc2565b90508373ffffffffffffffffffffffffffffffffffffffff168173ffffffffffffffffffffffffffffffffffffffff1614610638578382826040517f64283d7b00000000000000000000000000000000000000000000000000000000815260040161062f9392919061280a565b60405180910390fd5b50505050565b61065983838360405180602001604052806000815250610a9b565b505050565b60006106686111ef565b905060008160000160089054906101000a900460ff1615905060008260000160009054906101000a900467ffffffffffffffff1690506000808267ffffffffffffffff161480156106b65750825b9050600060018367ffffffffffffffff161480156106eb575060003073ffffffffffffffffffffffffffffffffffffffff163b145b9050811580156106f9575080155b15610730576040517ff92ee8a900000000000000000000000000000000000000000000000000000000815260040160405180910390fd5b60018560000160006101000a81548167ffffffffffffffff021916908367ffffffffffffffff16021790555083156107805760018560000160086101000a81548160ff0219169083151502179055505b61078a8787611203565b61079333611219565b83156107ef5760008560000160086101000a81548160ff0219169083151502179055507fc7f505b2f371ae2175ee4913f4499e1f2633a7b5936321eed1cdaeb6115181d260016040516107e69190612886565b60405180910390a15b50505050505050565b600061080382610ed5565b9050919050565b600080610815610ead565b9050600073ffffffffffffffffffffffffffffffffffffffff168373ffffffffffffffffffffffffffffffffffffffff16036108895760006040517f89c62b640000000000000000000000000000000000000000000000000000000081526004016108809190612229565b60405180910390fd5b8060030160008473ffffffffffffffffffffffffffffffffffffffff1673ffffffffffffffffffffffffffffffffffffffff16815260200190815260200160002054915050919050565b6108db61122d565b6108e560006112b4565b565b600063ad092b5c60e01b827bffffffffffffffffffffffffffffffffffffffffffffffffffffffff19161480610922575061092182610dcb565b5b9050919050565b60008061093461138b565b90508060000160009054906101000a900473ffffffffffffffffffffffffffffffffffffffff1691505090565b6000806000838152602001908152602001600020600101549050919050565b61098861122d565b61099281836113b3565b8073ffffffffffffffffffffffffffffffffffffffff167f30385c845b448a36257a6a1716e6ad2e1bc2cbe333cde1e69fe849ad6511adfe836040516109d891906124ec565b60405180910390a25050565b606060006109f0610ead565b9050806001018054610a01906127d9565b80601f0160208091040260200160405190810160405280929190818152602001828054610a2d906127d9565b8015610a7a5780601f10610a4f57610100808354040283529160200191610a7a565b820191906000526020600020905b815481529060010190602001808311610a5d57829003601f168201915b505050505091505090565b610a97610a90610fa8565b83836114ac565b5050565b610aa684848461053c565b610aba610ab1610fa8565b8585858561162a565b50505050565b6000806000838152602001908152602001600020600101544211610b1b5760008083815260200190815260200160002060000160009054906101000a900473ffffffffffffffffffffffffffffffffffffffff169050610b20565b600090505b919050565b6060610b3082610ed5565b506000610b3b6117db565b90506000815111610b5b5760405180602001604052806000815250610b86565b80610b65846117f2565b604051602001610b769291906128dd565b6040516020818303038152906040525b915050919050565b610b9833846118c0565b610bd7576040517f08c379a0000000000000000000000000000000000000000000000000000000008152600401610bce90612973565b60405180910390fd5b60008060008581526020019081526020016000209050828160000160006101000a81548173ffffffffffffffffffffffffffffffffffffffff021916908373ffffffffffffffffffffffffffffffffffffffff1602179055508167ffffffffffffffff1642610c4691906129c2565b81600101819055508273ffffffffffffffffffffffffffffffffffffffff16847f4e06b4e7000e659094299b3533b47b6aa8ad048e95e872d23d1f4ee55af89cfe84604051610c959190612a05565b60405180910390a350505050565b600080610cae610ead565b90508060050160008573ffffffffffffffffffffffffffffffffffffffff1673ffffffffffffffffffffffffffffffffffffffff16815260200190815260200160002060008473ffffffffffffffffffffffffffffffffffffffff1673ffffffffffffffffffffffffffffffffffffffff16815260200190815260200160002060009054906101000a900460ff1691505092915050565b610d4d61122d565b600073ffffffffffffffffffffffffffffffffffffffff168173ffffffffffffffffffffffffffffffffffffffff1603610dbf5760006040517f1e4fbdf7000000000000000000000000000000000000000000000000000000008152600401610db69190612229565b60405180910390fd5b610dc8816112b4565b50565b60007f80ac58cd000000000000000000000000000000000000000000000000000000007bffffffffffffffffffffffffffffffffffffffffffffffffffffffff1916827bffffffffffffffffffffffffffffffffffffffffffffffffffffffff19161480610e9657507f5b5e139f000000000000000000000000000000000000000000000000000000007bffffffffffffffffffffffffffffffffffffffffffffffffffffffff1916827bffffffffffffffffffffffffffffffffffffffffffffffffffffffff1916145b80610ea65750610ea582611955565b5b9050919050565b60007f80bb2b638cc20bc4d0a60d66940f3ab4a00c1d7b313497ca82fb0b4ab0079300905090565b600080610ee1836119bf565b9050600073ffffffffffffffffffffffffffffffffffffffff168173ffffffffffffffffffffffffffffffffffffffff1603610f5457826040517f7e273289000000000000000000000000000000000000000000000000000000008152600401610f4b91906124ec565b60405180910390fd5b80915050919050565b600080610f68610ead565b905080600401600084815260200190815260200160002060009054906101000a900473ffffffffffffffffffffffffffffffffffffffff16915050919050565b600033905090565b610fbd8383836001611a0a565b505050565b600080610fcd610ead565b90506000610fda856119bf565b9050600073ffffffffffffffffffffffffffffffffffffffff168473ffffffffffffffffffffffffffffffffffffffff161461101c5761101b818587611bde565b5b600073ffffffffffffffffffffffffffffffffffffffff168173ffffffffffffffffffffffffffffffffffffffff16146110af5761105e600086600080611a0a565b60018260030160008373ffffffffffffffffffffffffffffffffffffffff1673ffffffffffffffffffffffffffffffffffffffff168152602001908152602001600020600082825403925050819055505b600073ffffffffffffffffffffffffffffffffffffffff168673ffffffffffffffffffffffffffffffffffffffff16146111345760018260030160008873ffffffffffffffffffffffffffffffffffffffff1673ffffffffffffffffffffffffffffffffffffffff168152602001908152602001600020600082825401925050819055505b8582600201600087815260200190815260200160002060006101000a81548173ffffffffffffffffffffffffffffffffffffffff021916908373ffffffffffffffffffffffffffffffffffffffff160217905550848673ffffffffffffffffffffffffffffffffffffffff168273ffffffffffffffffffffffffffffffffffffffff167fddf252ad1be2c89b69c2b068fc378daa952ba7f163c4a11628f55a4df523b3ef60405160405180910390a480925050509392505050565b6000806111fa611ca2565b90508091505090565b61120b611ccd565b6112158282611d0d565b5050565b611221611ccd565b61122a81611d4a565b50565b611235610fa8565b73ffffffffffffffffffffffffffffffffffffffff16611253610929565b73ffffffffffffffffffffffffffffffffffffffff16146112b257611276610fa8565b6040517f118cdaa70000000000000000000000000000000000000000000000000000000081526004016112a99190612229565b60405180910390fd5b565b60006112be61138b565b905060008160000160009054906101000a900473ffffffffffffffffffffffffffffffffffffffff169050828260000160006101000a81548173ffffffffffffffffffffffffffffffffffffffff021916908373ffffffffffffffffffffffffffffffffffffffff1602179055508273ffffffffffffffffffffffffffffffffffffffff168173ffffffffffffffffffffffffffffffffffffffff167f8be0079c531659141344cd1fd0a4f28419497f9722a3daafe3b4186f6b6457e060405160405180910390a3505050565b60007f9016d09d72d40fdae2fd8ceac6b6234c7706214fd39c1cd1e609a0528c199300905090565b600073ffffffffffffffffffffffffffffffffffffffff168273ffffffffffffffffffffffffffffffffffffffff16036114255760006040517f64a0ae9200000000000000000000000000000000000000000000000000000000815260040161141c9190612229565b60405180910390fd5b600061143383836000610fc2565b9050600073ffffffffffffffffffffffffffffffffffffffff168173ffffffffffffffffffffffffffffffffffffffff16146114a75760006040517f73c6ac6e00000000000000000000000000000000000000000000000000000000815260040161149e9190612229565b60405180910390fd5b505050565b60006114b6610ead565b9050600073ffffffffffffffffffffffffffffffffffffffff168373ffffffffffffffffffffffffffffffffffffffff160361152957826040517f5b08ba180000000000000000000000000000000000000000000000000000000081526004016115209190612229565b60405180910390fd5b818160050160008673ffffffffffffffffffffffffffffffffffffffff1673ffffffffffffffffffffffffffffffffffffffff16815260200190815260200160002060008573ffffffffffffffffffffffffffffffffffffffff1673ffffffffffffffffffffffffffffffffffffffff16815260200190815260200160002060006101000a81548160ff0219169083151502179055508273ffffffffffffffffffffffffffffffffffffffff168473ffffffffffffffffffffffffffffffffffffffff167f17307eab39ab6107e8899845ad3d59bd9653f200f220920489ca2b5937696c318460405161161c91906120b8565b60405180910390a350505050565b60008373ffffffffffffffffffffffffffffffffffffffff163b11156117d4578273ffffffffffffffffffffffffffffffffffffffff1663150b7a02868685856040518563ffffffff1660e01b81526004016116899493929190612a75565b6020604051808303816000875af19250505080156116c557506040513d601f19601f820116820180604052508101906116c29190612ad6565b60015b611749573d80600081146116f5576040519150601f19603f3d011682016040523d82523d6000602084013e6116fa565b606091505b50600081510361174157836040517f64a0ae920000000000000000000000000000000000000000000000000000000081526004016117389190612229565b60405180910390fd5b805181602001fd5b63150b7a0260e01b7bffffffffffffffffffffffffffffffffffffffffffffffffffffffff1916817bffffffffffffffffffffffffffffffffffffffffffffffffffffffff1916146117d257836040517f64a0ae920000000000000000000000000000000000000000000000000000000081526004016117c99190612229565b60405180910390fd5b505b5050505050565b606060405180602001604052806000815250905090565b60606000600161180184611dd0565b01905060008167ffffffffffffffff8111156118205761181f61230d565b5b6040519080825280601f01601f1916602001820160405280156118525781602001600182028036833780820191505090505b509050600082602001820190505b6001156118b5578080600190039150507f3031323334353637383961626364656600000000000000000000000000000000600a86061a8153600a85816118a9576118a8612b03565b5b04945060008503611860575b819350505050919050565b6000806118cc836107f8565b90508073ffffffffffffffffffffffffffffffffffffffff168473ffffffffffffffffffffffffffffffffffffffff16148061190e575061190d8185610ca3565b5b8061194c57508373ffffffffffffffffffffffffffffffffffffffff166119348461050a565b73ffffffffffffffffffffffffffffffffffffffff16145b91505092915050565b60007f01ffc9a7000000000000000000000000000000000000000000000000000000007bffffffffffffffffffffffffffffffffffffffffffffffffffffffff1916827bffffffffffffffffffffffffffffffffffffffffffffffffffffffff1916149050919050565b6000806119ca610ead565b905080600201600084815260200190815260200160002060009054906101000a900473ffffffffffffffffffffffffffffffffffffffff16915050919050565b6000611a14610ead565b90508180611a4f5750600073ffffffffffffffffffffffffffffffffffffffff168373ffffffffffffffffffffffffffffffffffffffff1614155b15611b83576000611a5f85610ed5565b9050600073ffffffffffffffffffffffffffffffffffffffff168473ffffffffffffffffffffffffffffffffffffffff1614158015611aca57508373ffffffffffffffffffffffffffffffffffffffff168173ffffffffffffffffffffffffffffffffffffffff1614155b8015611add5750611adb8185610ca3565b155b15611b1f57836040517fa9fbf51f000000000000000000000000000000000000000000000000000000008152600401611b169190612229565b60405180910390fd5b8215611b8157848673ffffffffffffffffffffffffffffffffffffffff168273ffffffffffffffffffffffffffffffffffffffff167f8c5be1e5ebec7d5bd14f71427d1e84f3dd0314c0f7b2291e5b200ac8c7c3b92560405160405180910390a45b505b8481600401600086815260200190815260200160002060006101000a81548173ffffffffffffffffffffffffffffffffffffffff021916908373ffffffffffffffffffffffffffffffffffffffff1602179055505050505050565b611be9838383611f23565b611c9d57600073ffffffffffffffffffffffffffffffffffffffff168373ffffffffffffffffffffffffffffffffffffffff1603611c5e57806040517f7e273289000000000000000000000000000000000000000000000000000000008152600401611c5591906124ec565b60405180910390fd5b81816040517f177e802f000000000000000000000000000000000000000000000000000000008152600401611c94929190612b32565b60405180910390fd5b505050565b60007ff0c57e16840df040f15088dc2f81fe391c3923bec73e23a9662efc9c229c6a0060001b905090565b611cd5611fe4565b611d0b576040517fd7e6bcf800000000000000000000000000000000000000000000000000000000815260040160405180910390fd5b565b611d15611ccd565b6000611d1f610ead565b905082816000019081611d329190612cfd565b5081816001019081611d449190612cfd565b50505050565b611d52611ccd565b600073ffffffffffffffffffffffffffffffffffffffff168173ffffffffffffffffffffffffffffffffffffffff1603611dc45760006040517f1e4fbdf7000000000000000000000000000000000000000000000000000000008152600401611dbb9190612229565b60405180910390fd5b611dcd816112b4565b50565b600080600090507a184f03e93ff9f4daa797ed6e38ed64bf6a1f0100000000000000008310611e2e577a184f03e93ff9f4daa797ed6e38ed64bf6a1f0100000000000000008381611e2457611e23612b03565b5b0492506040810190505b6d04ee2d6d415b85acef81000000008310611e6b576d04ee2d6d415b85acef81000000008381611e6157611e60612b03565b5b0492506020810190505b662386f26fc100008310611e9a57662386f26fc100008381611e9057611e8f612b03565b5b0492506010810190505b6305f5e1008310611ec3576305f5e1008381611eb957611eb8612b03565b5b0492506008810190505b6127108310611ee8576127108381611ede57611edd612b03565b5b0492506004810190505b60648310611f0b5760648381611f0157611f00612b03565b5b0492506002810190505b600a8310611f1a576001810190505b80915050919050565b60008073ffffffffffffffffffffffffffffffffffffffff168373ffffffffffffffffffffffffffffffffffffffff1614158015611fdb57508273ffffffffffffffffffffffffffffffffffffffff168473ffffffffffffffffffffffffffffffffffffffff161480611f9c5750611f9b8484610ca3565b5b80611fda57508273ffffffffffffffffffffffffffffffffffffffff16611fc283610f5d565b73ffffffffffffffffffffffffffffffffffffffff16145b5b90509392505050565b6000611fee6111ef565b60000160089054906101000a900460ff16905090565b6000604051905090565b600080fd5b600080fd5b60007fffffffff0000000000000000000000000000000000000000000000000000000082169050919050565b61204d81612018565b811461205857600080fd5b50565b60008135905061206a81612044565b92915050565b6000602082840312156120865761208561200e565b5b60006120948482850161205b565b91505092915050565b60008115159050919050565b6120b28161209d565b82525050565b60006020820190506120cd60008301846120a9565b92915050565b600081519050919050565b600082825260208201905092915050565b60005b8381101561210d5780820151818401526020810190506120f2565b60008484015250505050565b6000601f19601f8301169050919050565b6000612135826120d3565b61213f81856120de565b935061214f8185602086016120ef565b61215881612119565b840191505092915050565b6000602082019050818103600083015261217d818461212a565b905092915050565b6000819050919050565b61219881612185565b81146121a357600080fd5b50565b6000813590506121b58161218f565b92915050565b6000602082840312156121d1576121d061200e565b5b60006121df848285016121a6565b91505092915050565b600073ffffffffffffffffffffffffffffffffffffffff82169050919050565b6000612213826121e8565b9050919050565b61222381612208565b82525050565b600060208201905061223e600083018461221a565b92915050565b61224d81612208565b811461225857600080fd5b50565b60008135905061226a81612244565b92915050565b600080604083850312156122875761228661200e565b5b60006122958582860161225b565b92505060206122a6858286016121a6565b9150509250929050565b6000806000606084860312156122c9576122c861200e565b5b60006122d78682870161225b565b93505060206122e88682870161225b565b92505060406122f9868287016121a6565b9150509250925092565b600080fd5b600080fd5b7f4e487b7100000000000000000000000000000000000000000000000000000000600052604160045260246000fd5b61234582612119565b810181811067ffffffffffffffff821117156123645761236361230d565b5b80604052505050565b6000612377612004565b9050612383828261233c565b919050565b600067ffffffffffffffff8211156123a3576123a261230d565b5b6123ac82612119565b9050602081019050919050565b82818337600083830152505050565b60006123db6123d684612388565b61236d565b9050828152602081018484840111156123f7576123f6612308565b5b6124028482856123b9565b509392505050565b600082601f83011261241f5761241e612303565b5b813561242f8482602086016123c8565b91505092915050565b6000806040838503121561244f5761244e61200e565b5b600083013567ffffffffffffffff81111561246d5761246c612013565b5b6124798582860161240a565b925050602083013567ffffffffffffffff81111561249a57612499612013565b5b6124a68582860161240a565b9150509250929050565b6000602082840312156124c6576124c561200e565b5b60006124d48482850161225b565b91505092915050565b6124e681612185565b82525050565b600060208201905061250160008301846124dd565b92915050565b6000806040838503121561251e5761251d61200e565b5b600061252c858286016121a6565b925050602061253d8582860161225b565b9150509250929050565b6125508161209d565b811461255b57600080fd5b50565b60008135905061256d81612547565b92915050565b6000806040838503121561258a5761258961200e565b5b60006125988582860161225b565b92505060206125a98582860161255e565b9150509250929050565b600067ffffffffffffffff8211156125ce576125cd61230d565b5b6125d782612119565b9050602081019050919050565b60006125f76125f2846125b3565b61236d565b90508281526020810184848401111561261357612612612308565b5b61261e8482856123b9565b509392505050565b600082601f83011261263b5761263a612303565b5b813561264b8482602086016125e4565b91505092915050565b6000806000806080858703121561266e5761266d61200e565b5b600061267c8782880161225b565b945050602061268d8782880161225b565b935050604061269e878288016121a6565b925050606085013567ffffffffffffffff8111156126bf576126be612013565b5b6126cb87828801612626565b91505092959194509250565b600067ffffffffffffffff82169050919050565b6126f4816126d7565b81146126ff57600080fd5b50565b600081359050612711816126eb565b92915050565b6000806000606084860312156127305761272f61200e565b5b600061273e868287016121a6565b935050602061274f8682870161225b565b925050604061276086828701612702565b9150509250925092565b600080604083850312156127815761278061200e565b5b600061278f8582860161225b565b92505060206127a08582860161225b565b9150509250929050565b7f4e487b7100000000000000000000000000000000000000000000000000000000600052602260045260246000fd5b600060028204905060018216806127f157607f821691505b602082108103612804576128036127aa565b5b50919050565b600060608201905061281f600083018661221a565b61282c60208301856124dd565b612839604083018461221a565b949350505050565b6000819050919050565b6000819050919050565b600061287061286b61286684612841565b61284b565b6126d7565b9050919050565b61288081612855565b82525050565b600060208201905061289b6000830184612877565b92915050565b600081905092915050565b60006128b7826120d3565b6128c181856128a1565b93506128d18185602086016120ef565b80840191505092915050565b60006128e982856128ac565b91506128f582846128ac565b91508190509392505050565b7f455243343930373a207472616e736665722063616c6c6572206973206e6f742060008201527f6f776e6572206e6f7220617070726f7665640000000000000000000000000000602082015250565b600061295d6032836120de565b915061296882612901565b604082019050919050565b6000602082019050818103600083015261298c81612950565b9050919050565b7f4e487b7100000000000000000000000000000000000000000000000000000000600052601160045260246000fd5b60006129cd82612185565b91506129d883612185565b92508282019050808211156129f0576129ef612993565b5b92915050565b6129ff816126d7565b82525050565b6000602082019050612a1a60008301846129f6565b92915050565b600081519050919050565b600082825260208201905092915050565b6000612a4782612a20565b612a518185612a2b565b9350612a618185602086016120ef565b612a6a81612119565b840191505092915050565b6000608082019050612a8a600083018761221a565b612a97602083018661221a565b612aa460408301856124dd565b8181036060830152612ab68184612a3c565b905095945050505050565b600081519050612ad081612044565b92915050565b600060208284031215612aec57612aeb61200e565b5b6000612afa84828501612ac1565b91505092915050565b7f4e487b7100000000000000000000000000000000000000000000000000000000600052601260045260246000fd5b6000604082019050612b47600083018561221a565b612b5460208301846124dd565b9392505050565b60008190508160005260206000209050919050565b60006020601f8301049050919050565b600082821b905092915050565b600060088302612bbd7fffffffffffffffffffffffffffffffffffffffffffffffffffffffffffffffff82612b80565b612bc78683612b80565b95508019841693508086168417925050509392505050565b6000612bfa612bf5612bf084612185565b61284b565b612185565b9050919050565b6000819050919050565b612c1483612bdf565b612c28612c2082612c01565b848454612b8d565b825550505050565b600090565b612c3d612c30565b612c48818484612c0b565b505050565b5b81811015612c6c57612c61600082612c35565b600181019050612c4e565b5050565b601f821115612cb157612c8281612b5b565b612c8b84612b70565b81016020851015612c9a578190505b612cae612ca685612b70565b830182612c4d565b50505b505050565b600082821c905092915050565b6000612cd460001984600802612cb6565b1980831691505092915050565b6000612ced8383612cc3565b9150826002028217905092915050565b612d06826120d3565b67ffffffffffffffff811115612d1f57612d1e61230d565b5b612d2982546127d9565b612d34828285612c70565b600060209050601f831160018114612d675760008415612d55578287015190505b612d5f8582612ce1565b865550612dc7565b601f198416612d7586612b5b565b60005b82811015612d9d57848901518255600182019150602085019450602081019050612d78565b86831015612dba5784890151612db6601f891682612cc3565b8355505b6001600288020188555050505b50505050505056fea2646970667358221220eb14870b7fc324aee641b5f3d6f89cf97cde6fbf0d94ed26e3f299a012228bb664736f6c634300081c0033",
  "devdoc": {
    "errors": {
      "ERC721IncorrectOwner(address,uint256,address)": [
        {
          "details": "Indicates an error related to the ownership over a particular token. Used in transfers.",
          "params": {
            "owner": "Address of the current owner of a token.",
            "sender": "Address whose tokens are being transferred.",
            "tokenId": "Identifier number of a token."
          }
        }
      ],
      "ERC721InsufficientApproval(address,uint256)": [
        {
          "details": "Indicates a failure with the `operator`s approval. Used in transfers.",
          "params": {
            "operator": "Address that may be allowed to operate on tokens without being their owner.",
            "tokenId": "Identifier number of a token."
          }
        }
      ],
      "ERC721InvalidApprover(address)": [
        {
          "details": "Indicates a failure with the `approver` of a token to be approved. Used in approvals.",
          "params": {
            "approver": "Address initiating an approval operation."
          }
        }
      ],
      "ERC721InvalidOperator(address)": [
        {
          "details": "Indicates a failure with the `operator` to be approved. Used in approvals.",
          "params": {
            "operator": "Address that may be allowed to operate on tokens without being their owner."
          }
        }
      ],
      "ERC721InvalidOwner(address)": [
        {
          "details": "Indicates that an address can't be an owner. For example, `address(0)` is a forbidden owner in ERC-20. Used in balance queries.",
          "params": {
            "owner": "Address of the current owner of a token."
          }
        }
      ],
      "ERC721InvalidReceiver(address)": [
        {
          "details": "Indicates a failure with the token `receiver`. Used in transfers.",
          "params": {
            "receiver": "Address to which tokens are being transferred."
          }
        }
      ],
      "ERC721InvalidSender(address)": [
        {
          "details": "Indicates a failure with the token `sender`. Used in transfers.",
          "params": {
            "sender": "Address whose tokens are being transferred."
          }
        }
      ],
      "ERC721NonexistentToken(uint256)": [
        {
          "details": "Indicates a `tokenId` whose `owner` is the zero address.",
          "params": {
            "tokenId": "Identifier number of a token."
          }
        }
      ],
      "InvalidInitialization()": [
        {
          "details": "The contract is already initialized."
        }
      ],
      "NotInitializing()": [
        {
          "details": "The contract is not initializing."
        }
      ],
      "OwnableInvalidOwner(address)": [
        {
          "details": "The owner is not a valid owner account. (eg. `address(0)`)"
        }
      ],
      "OwnableUnauthorizedAccount(address)": [
        {
          "details": "The caller account is not authorized to perform an operation."
        }
      ]
    },
    "events": {
      "Approval(address,address,uint256)": {
        "details": "Emitted when `owner` enables `approved` to manage the `tokenId` token."
      },
      "ApprovalForAll(address,address,bool)": {
        "details": "Emitted when `owner` enables or disables (`approved`) `operator` to manage all of its assets."
      },
      "Initialized(uint64)": {
        "details": "Triggered when the contract has been initialized or reinitialized."
      },
      "Transfer(address,address,uint256)": {
        "details": "Emitted when `tokenId` token is transferred from `from` to `to`."
      }
    },
    "kind": "dev",
    "methods": {
      "approve(address,uint256)": {
        "details": "See {IERC721-approve}."
      },
      "balanceOf(address)": {
        "details": "See {IERC721-balanceOf}."
      },
      "getApproved(uint256)": {
        "details": "See {IERC721-getApproved}."
      },
      "isApprovedForAll(address,address)": {
        "details": "See {IERC721-isApprovedForAll}."
      },
      "name()": {
        "details": "See {IERC721Metadata-name}."
      },
      "owner()": {
        "details": "Returns the address of the current owner."
      },
      "ownerOf(uint256)": {
        "details": "See {IERC721-ownerOf}."
      },
      "renounceOwnership()": {
        "details": "Leaves the contract without owner. It will not be possible to call `onlyOwner` functions. Can only be called by the current owner. NOTE: Renouncing ownership will leave the contract without an owner, thereby disabling any functionality that is only available to the owner."
      },
      "safeTransferFrom(address,address,uint256)": {
        "details": "See {IERC721-safeTransferFrom}."
      },
      "safeTransferFrom(address,address,uint256,bytes)": {
        "details": "See {IERC721-safeTransferFrom}."
      },
      "setApprovalForAll(address,bool)": {
        "details": "See {IERC721-setApprovalForAll}."
      },
      "symbol()": {
        "details": "See {IERC721Metadata-symbol}."
      },
      "tokenURI(uint256)": {
        "details": "See {IERC721Metadata-tokenURI}."
      },
      "transferFrom(address,address,uint256)": {
        "details": "See {IERC721-transferFrom}."
      },
      "transferOwnership(address)": {
        "details": "Transfers ownership of the contract to a new account (`newOwner`). Can only be called by the current owner."
      }
    },
    "version": 1
  },
  "userdoc": {
    "events": {
      "UpdateUser(uint256,address,uint64)": {
        "notice": "Emitted when the `user` of an NFT or the `expires` of the `user` is changed The zero address for user indicates that there is no user address"
      }
    },
    "kind": "user",
    "methods": {},
    "version": 1
  },
  "storageLayout": {
    "storage": [
      {
        "astId": 7019,
        "contract": "contracts/RentalNFT.sol:RentalNFT",
        "label": "users",
        "offset": 0,
        "slot": "0",
        "type": "t_mapping(t_uint256,t_struct(UserInfo)7014_storage)"
      }
    ],
    "types": {
      "t_address": {
        "encoding": "inplace",
        "label": "address",
        "numberOfBytes": "20"
      },
      "t_mapping(t_uint256,t_struct(UserInfo)7014_storage)": {
        "encoding": "mapping",
        "key": "t_uint256",
        "label": "mapping(uint256 => struct ERC4907Upgradable.UserInfo)",
        "numberOfBytes": "32",
        "value": "t_struct(UserInfo)7014_storage"
      },
      "t_struct(UserInfo)7014_storage": {
        "encoding": "inplace",
        "label": "struct ERC4907Upgradable.UserInfo",
        "members": [
          {
            "astId": 7011,
            "contract": "contracts/RentalNFT.sol:RentalNFT",
            "label": "user",
            "offset": 0,
            "slot": "0",
            "type": "t_address"
          },
          {
            "astId": 7013,
            "contract": "contracts/RentalNFT.sol:RentalNFT",
            "label": "expires",
            "offset": 0,
            "slot": "1",
            "type": "t_uint256"
          }
        ],
        "numberOfBytes": "64"
      },
      "t_uint256": {
        "encoding": "inplace",
        "label": "uint256",
        "numberOfBytes": "32"
      }
    }
  }
}